S01200004174385F6D696C6C69732E737265633C
S113000053C06DC06CC06BC06AC069C02CC267C0ED
S113001066C065C064C063C062C061C060C05FC0C8
S11300205EC05DC05CC007634236B79BD8A71A396F
S1130030685618AEBAAB558C1D3CB7CC5763BD6D32
S1130040EDFD753EF6177231BF000000803F0800D9
S11300500000BE922449123EABAAAA2ABECDCCCC43
S11300604C3E00000080BEABAAAAAA3E00000000DD
S1130070BF000000803F0000000000084178D3BBAF
S11300804387D1133D190E3CC3BD4282AD2B3E685C
S1130090EC8276BED98FE1A93E4C80EFFFBE01C44D
S11300A0FF7F3F000000000011241FBECFE5D4E015
S11300B0DEBFCDBF10E0A0E6B0E0EEEBF5E102C09C
S11300C005900D92A83AB107D9F711E0A8EAB0E07B
S11300D001C01D92A236B107E1F78DD46ECA90CF4C
S11300E0AA9A00C0AA980895CF93662311F0A89AFB
S11300F001C0A898A9988C9A8D9A8E9A8F9A9798ED
S113010096989598949888230CF4979AC82F86FD0E
S1130110969AC5FD959AC4FD949AE2DF97989698AD
S113012095989498C3FD979AC2FD969AC1FD959AA5
S1130130C0FD949AD5DF949A959A969A979ACF91FE
S11301400895882311F0A89A01C0A898A99A8C98B8
S11301508D988E988F98AA9A00C0849902C080E0E6
S113016001C080E18599806286998064879980685E
S1130170AA9800C0AA9A00C0849981608599826077
S11301808699846087998860AA98089580E0D9DF69
S11301908823E4F300C080E0D4DF0895CF93C82F10
S11301A0F5DF8C2F60E0A0DFCF910895CF93C82FA7
S11301B0EDDF8C2F61E098DFCF910895662319F469
S11301C08058ECDF08958054E9DF0895DFDF90E084
S11301D0089581E0E3DF089582E0E0DF0895CF939E
S11301E0C82FD4DFCA3041F4803410F480E401C055
S11301F080E08058D3DF03C08C2F61E075DFCF919E
S11302000895CF93DF93EC018881882329F0219608
S1130210E6DF89918823E1F7DF91CF910895CF93A9
S1130220DF93EC01FC018491882339F02196D7DF18
S1130230FE01219684918823D1F7DF91CF9108950F
S11302401F93CF93DF93182FA09AA19AA29A8C9A06
S11302508D9A8E9A8F9A80EA9FE00197F1F7959A8A
S1130260949A3EDF80EE94E00197F1F739DFC0E124
S1130270D0E0CE010197F1F733DFCE010197F1F71A
S113028094982EDF2197F1F788E288DF88E086DFF3
S1130290A0DF86E083DF812F81DFDF91CF911F9183
S11302A00895882319F485B585BD0895813021F416
S11302B085B5806485BD0895823021F485B5886054
S11302C085BD0895833019F485B5886485BD089586
S11302D095B5892B85BD089595B58295807F982B1A
S11302E095BD089569B7282F30E02A5F3F4F41E05C
S11302F050E0CA0102C0880F991F2A95E2F7862BA5
S113030089BF089569B7282F30E02A5F3F4F41E045
S113031050E0CA0102C0880F991F2A95E2F7809520
S1130320682369BF089583BD089510BC83E389B928
S11303308AB188618AB980B5866880BD08955D9B5D
S1130340FECF8CB908955F9BFECF8CB10895CF93F7
S1130350DF93EC018881882329F02196F0DF8991CD
S11303608823E1F7DF91CF910895EF92FF920F93E5
S11303701F93CF93DF937C01D62FC0E087010C0F2E
S1130380111DE1DFF80180838D1711F0CF5FF6CFE7
S1130390F701EC0FF11D10828E2D9F2DDF91CF916F
S11303A01F910F91FF90EF9008951FBC89E08EBDBF
S11303B080E189BF80E49FE19BBD8ABD08950F93CE
S11303C01F938FB7F89400915A0110915B0120910B
S11303D05C0130915D018FBF602F712F822F932FAD
S11303E01F910F9108958FB7F89410925A011092AB
S11303F05B0110925C0110925D018FBF0895AB0107
S1130400BC012FB7F89480915A0190915B01A0919F
S11304105C01B0915D01840F951FA61FB71F8093E7
S11304205A0190935B01A0935C01B0935D012FBFCF
S11304300895AB01BC012FB7F89480915A019091B3
S11304405B01A0915C01B0915D01841B950BA60B2F
S1130450B70B80935A0190935B01A0935C01B09316
S11304605D012FBF08951F920F920FB60F921124B2
S11304708F939F93AF93BF9380915A0190915B01A7
S1130480A0915C01B0915D010196A11DB11D809305
S11304905A0190935B01A0935C01B0935D01BF91FD
S11304A0AF919F918F910F900FBE0F901F90189551
S11304B0EF92FF920F931F93CF93DF93EC0110926F
S11304C0AB001092AA00009779F020E030E0EAE057
S11304D0F0E02F5F3F4FBF01EBD6CB010097C9F788
S11304E03093AB002093AA00880F991F08D7E82EF9
S11304F0F92E2091AA003091AB0021503040B2F087
S1130500F901EE0FFF1FEE0DFF1D0AE010E0CE0112
S1130510B801CED6C09691838083C62FD72F2150A1
S1130520304032978FEF2F3F380789F78E2D9F2D5C
S1130530DF91CF911F910F91FF90EF9008958F92CB
S11305409F92AF92BF92CF92DF92EF92FF920F935E
S11305501F93CF93DF936091AE007091AF006F3122
S113056071050CF44BC06091B2007091B300882700
S113057077FD8095982FE0D36B017C010091E0001A
S11305801091E1006091DE007091DF00882777FD13
S11305908095982FD1D34B015C01C801880F991F16
S11305A0880F991FEC01CE51DF4FC701B601288196
S11305B039814A815B8128D39B01AC01C501B40117
S11305C024D387D3AB01BC01CA015093DF0040930D
S11305D0DE00C882D982EA82FB822EE130E0B901D2
S11305E067D67093B1006093B000C8010196B90159
S11305F05FD69093E1008093E00052C02091B20056
S11306003091B3008091AC009091AD00820F931FA4
S11306109093AD008093AC004BD67093B10060937F
S1130620B000B901882777FD8095982F85D36B0199
S11306307C010091E0001091E1006091DE00709176
S1130640DF00882777FD8095982F76D34B015C01D6
S1130650C801880F991F880F991FEC01CE51DF4FF5
S1130660C701B601288139814A815B81CDD29B01C2
S1130670AC01C501B401C9D22CD3DC01CB019093E8
S1130680DF008093DE00C882D982EA82FB82C8013F
S113069001966EE170E00CD69093E1008093E00047
S11306A0DF91CF911F910F91FF90EF90DF90CF904A
S11306B0BF90AF909F908F9008958F929F92AF922A
S11306C0BF92CF92DF92EF92FF920F931F93CF933B
S11306D0DF936091B6007091B700693071050CF436
S11306E050C06091A8007091A900882777FD80957B
S11306F0982F22D36B017C010091BC001091BD00A6
S11307006091BA007091BB00882777FD8095982F7F
S113071013D34B015C01C801880F991F880F991FDF
S1130720EC01C254DF4FC701B601288139814A81E7
S11307305B816AD29B01AC01C501B40166D2C9D206
S11307406093BA007093BB00C882D982EA82FB82AC
S1130750862F972F99230CF4079695958795959551
S11307608795959587959093B9008093B800C801B3
S1130770019668E070E09CD59093BD008093BC0026
S113078052C02091A8003091A9008091B4009091AA
S1130790B500820F931F9093B5008093B40088D561
S11307A07093B9006093B800B901882777FD8095EC
S11307B0982FC2D26B017C010091BC001091BD0046
S11307C06091BA007091BB00882777FD8095982FBF
S11307D0B3D24B015C01C801880F991F880F991F80
S11307E0EC01C254DF4FC701B601288139814A8127
S11307F05B810AD29B01AC01C501B40106D269D266
S1130800DC01CB019093BB008093BA00C882D982EB
S1130810EA82FB82C801019668E070E049D59093B2
S1130820BD008093BC00DF91CF911F910F91FF9089
S1130830EF90DF90CF90BF90AF909F908F900895EE
S11308409B01215030401216130684F4DC01A60FDC
S1130850B71FFC0180E090E040815E9151934C937E
S113086001962150304082179307B4F30895EF9214
S1130870FF920F931F93CF93DF937B018A0100971D
S113088079F0FB01C0E0D0E02AE030E0B90110D5F6
S1130890805D81932196862F972F0097B9F702C028
S11308A0C0E0D0E0C017D10794F4F701EC0FFD1FAE
S11308B0CE0120E32193019680179107DCF3CE014A
S11308C00196C095D095C00FD11FC80FD91FC7017D
S11308D0BE01B6DFF701EC0FFD1F10828C2F9D2F98
S11308E0DF91CF911F910F91FF90EF90089587EEC4
S11308F086B910BE0895806487B98FEC97E001979C
S1130900F1F700C0000084B195B1392F20E090E0E8
S1130910822B932B08954F925F926F927F928F92C6
S11309209F92AF92BF92CF92DF92EF92FF920F937A
S11309301F93CF93DF936B017C01EA015901C9D165
S1130940DC01CB018C01BE0140E050E090DFA1143A
S1130950B10409F43FC0482E592EFE01E40DF51DE3
S11309608EE28083B501882777FD8095982FE4D1A6
S11309709B01AC0160E070E080E291E4CCD2962E61
S1130980872E782E692EB801882777FD8095982FB9
S1130990D3D19B01AC01C701B60136D1F62FE72FA5
S11309A0382F292F492D582D672D762DCB01BA01CB
S11309B0422F0F2F1E2F232F342FA901980148D225
S11309C088D1DC01CB01B2016F5F7F4F6C0F7D1FBB
S11309D0A5014DDFDF91CF911F910F91FF90EF9013
S11309E0DF90CF90BF90AF909F908F907F906F904B
S11309F05F904F900895CF93DF93CDB7DEB76497A0
S1130A000FB6F894DEBF0FBECDBFA59A8A9A8B9A13
S1130A10BB9A85B385BB929A82B382BB86DC67DFBF
S1130A20C4DC8CE00DDCD8DB789480E690E0E9DB74
S1130A3080E061E0C3DB80E790E0E3DB8FEF94E3E9
S1130A40ACE081509040A040E1F700C000008FEF7F
S1130A5094E3ACE081509040A040E1F700C0000076
S1130A608FEF94E3ACE081509040A040E1F700C0E8
S1130A7000008FEF94E3ACE081509040A040E1F798
S1130A8000C0000083E00DDC85E022DC82E024DC91
S1130A908EEF49DCCC24DD2476010F2EFFE76F2E88
S1130AA0F0E07F2EF02D0F2EF4E84F2EF0E05F2EB5
S1130AB0F02D0F2EF1E92F2EF0E03F2EF02D7FDCEC
S1130AC04B015C0185B385BBAFE2B2E01197F1F74E
S1130AD000C0000084E00FDF8C01BAE6BA95F1F79C
S1130AE000C0AD9AEFE9FBE43197F1F700C00000D4
S1130AF08091B6009091B7008A3091052CF401964C
S1130B009093B7008093B600D8DD063111054CF000
S1130B108091B2009091B30001969093B3008093BA
S1130B20B200D501C4018C199D09AE09BF09883EE4
S1130B30F3E09F07F0E0AF07F0E0BF0708F4BFCF92
S1130B408091AE009091AF00803291052CF4019613
S1130B509093AF008093AE00F2DC3BDB8091B00059
S1130B609091B100B3014AE050E0F8D4C20149DBEE
S1130B70C30147DB80E061E021DBB801882777FD12
S1130B808095982FD9D02EE230E940EA5BE360D11A
S1130B90AE014F5F5F4F23E030E0BDDEC10131DBCA
S1130BA0CE0101962EDB8091B0009091B10080DCE3
S1130BB02091AA003091AB00121613069CF4082F62
S1130BC0192FEE24FF24D8018C910E5F1F4FB7DB41
S1130BD00894E11CF11C8091AA009091AB00E816E6
S1130BE0F9068CF388E990E0B2DB8DE0A8DB8AE0BB
S1130BF0A6DB1092B3001092B2001092B7001092CC
S1130C00B600750164015BCF5058BB27AA270ED0EC
S1130C10E5C0D6D030F0DBD020F031F49F3F11F4A2
S1130C201EF4CBC00EF4E095E7FBC1C0E92FE7D07A
S1130C3080F3BA17620773078407950718F071F4F5
S1130C409EF5FFC00EF4E0950B2EBA2FA02D0B01DC
S1130C50B90190010C01CA01A0011124FF27591BFD
S1130C6099F0593F50F4503E68F11A16F040A22F03
S1130C70232F342F4427585FF3CF46953795279574
S1130C80A795F0405395C9F77EF41F16BA0B620B73
S1130C90730B840BBAF09150A1F0FF0FBB1F661FBA
S1130CA0771F881FC2F70EC0BA0F621F731F841FFD
S1130CB048F4879577956795B795F7959E3F08F023
S1130CC0B3CF9395880F08F09927EE0F97958795E2
S1130CD0089504D06894B111B5C0089598D088F0EF
S1130CE09F5790F0B92F9927B751A0F0D1F0660F14
S1130CF0771F881F991F1AF0BA95C9F712C0B1302F
S1130D0081F09FD0B1E008959CC0672F782F882789
S1130D10B85F39F0B93FCCF3869577956795B3956D
S1130D20D9F73EF490958095709561957F4F8F4FDC
S1130D309F4F0895E89409C097FB3EF490958095E1
S1130D40709561957F4F8F4F9F4F9923A9F0F92F8D
S1130D5096E9BB279395F695879577956795B7950B
S1130D60F111F8CFFAF4BB0F11F460FF1BC06F5FF1
S1130D707F4F8F4F9F4F16C0882311F096E911C003
S1130D80772321F09EE8872F762F05C0662371F024
S1130D9096E8862F70E060E02AF09A95660F771F38
S1130DA0881FDAF7880F9695879597F9089597F92C
S1130DB09F6780E870E060E008959FEF80EC0895FD
S1130DC000240A9416161706180609060895002426
S1130DD00A9412161306140605060895092E0394A0
S1130DE0000C11F4882352F0BB0F40F4BF2B11F414
S1130DF060FF04C06F5F7F4F8F4F9F4F089557FD73
S1130E009058440F551F59F05F3F71F04795880F74
S1130E1097FB991F61F09F3F79F08795089512160B
S1130E2013061406551FF2CF4695F1DF08C01616B7
S1130E3017061806991FF1CF869571056105089468
S1130E400895E894BB2766277727CB0197F908957F
S1130E500BD0C4CFB5DF28F0BADF18F0952309F022
S1130E60A6CFABCF1124EECFCADFA0F3959FD1F369
S1130E70950F50E0551F629FF001729FBB27F00D44
S1130E80B11D639FAA27F00DB11DAA1F649F662799
S1130E90B00DA11D661F829F2227B00DA11D621FE8
S1130EA0739FB00DA11D621F839FA00D611D221FA2
S1130EB0749F3327A00D611D231F849F600D211D86
S1130EC0822F762F6A2F11249F5750408AF0E1F029
S1130ED088234AF0EE0FFF1FBB1F661F771F881F72
S1130EE091505040A9F79E3F510570F060CFAACFB2
S1130EF05F3FECF3983EDCF3869577956795B7955D
S1130F00F795E7959F5FC1F7FE2B880F911D969586
S1130F10879597F90895FA01EE0FFF1F3096210582
S1130F20310599F16115710561F48038BFE39B07C0
S1130F3049F168949038810561F08038BFEF9B07D0
S1130F4041F0992342F5FF3FE1053105210511F1F7
S1130F50E8940894E795D901AA2329F4AB2FBE2F6E
S1130F60F85FD0F310C0FF5F70F4A695E0F7F7398F
S1130F7050F019F0FF3A38F49F779F930CD00F90FC
S1130F8007FC905808953EF018CF60E070E080E8C8
S1130F909FE308954FE79F775F934F933F932F937A
S1130FA09ED02F913F914F915F9152DF05C019F46C
S1130FB00EF0FDCE46CF01CF2ADFC8F39638C0F736
S1130FC007F80F92E8942BE33AEA48EB5FE74EDF29
S1130FD00F920F920F924DB75EB70F92C0D0E6E218
S1130FE0F0E016D04F915F91EF91FF91E595EE1FE0
S1130FF0FF1F49F0FE57E0684427EE0F441FFA959F
S1131000E1F74195550B32D00F9007FE26C00895A5
S1131010DF93CF931F930F93FF92EF92DF927B01A5
S11310208C01689405C0DA2EEF011EDFFE01E894FE
S1131030A5912591359145915591AEF3EF01F6DDDA
S1131040FE019701A801DA9479F7DF90EF90FF9001
S11310500F911F91CF91DF9108959B01AC0160E046
S113106070E080E89FE3AEC0A2CE14C1D0DEE8F306
S11310709923D9F3940F511DBBF39150504094F030
S113108059F0882332F0660F771F881F9150504023
S1131090C1F79E3F510544F7880F911D969587959A
S11310A097F908955F3FACF0983E9CF0BB27869576
S11310B077956795B79508F4B1609395C1F7BB0F21
S11310C058F711F460FFE8CF6F5F7F4F8F4F9F4F4A
S11310D0E3CFB8CE0EF0DEC070CE689468CE97DE53
S11310E0C8F39923D1F3C6F3DF93CF931F930F93E0
S11310F0FF92C92FDD2788232AF02197660F771FD7
S1131100881FDAF720E030E040E85FEB9FE388399E
S113111020F0803E30F021968F7777DDEEE4F0E02A
S113112003C073DDEBE7F0E073DF8B01BE01EC017C
S1131130FB2E6F5771097595771F880B990BFCDD92
S113114028E132E741E35FE38FDEAF2D9801AE0182
S1131150FF900F911F91CF91DF9168DD3FCEFA018F
S1131160DC01AA0FBB1F9B01AC01BF5728F4222747
S11311703327442750781FC0B75188F4AB2F00247D
S1131180469537952795011CA395D2F3002069F065
S1131190220F331F441FB395DAF30DD035CD6130E0
S11311A07105A0E88A07B94630F49B01AC016627B3
S11311B0772788279078309621F0208331834283E3
S11311C0538308950CD00ACE02DE40F0F9DD30F0EE
S11311D021F45F3F19F0EBCD511134CEEECD0FDE8B
S11311E098F39923C9F35523B1F3951B550BBB27EA
S11311F0AA2762177307840738F09F5F5F4F220F97
S1131200331F441FAA1FA9F333D00E2E3AF0E0E88F
S113121030D091505040E695001CCAF729D0FE2FDB
S113122027D0660F771F881FBB1F2617370748076D
S1131230AB07B0E809F0BB0B802DBF01FF27935823
S11312405F4F2AF09E3F510568F0B1CDFBCD5F3F63
S1131250ECF3983EDCF3869577956795B795F7950B
S11312609F5FC9F7880F911D9695879597F9089503
S1131270E1E0660F771F881FBB1F6217730784079F
S1131280BA0720F0621B730B840BBA0BEE1F88F7AE
S1131290E09508959F3F31F0915020F4879577951C
S11312A06795B795880F911D9695879597F9089539
S11312B097FB092E07260AD077FD04D00CD006D060
S11312C000201AF4709561957F4F0895F6F7909574
S11312D081959F4F0895AA1BBB1B51E107C0AA1F0C
S11312E0BB1FA617B70710F0A61BB70B881F991FC3
S11312F05A95A9F780959095BC01CD010895CF9397
S1131300DF93AC018230910510F442E050E0E091AB
S11313106001F091610120E030E0A0E0B0E024C081
S11313208081918184179507D0F08417950771F413
S113133082819381109729F013969C938E93129730
S11313402CC0909361018093600127C02115310561
S113135019F08217930718F49C01BD01EF019281E3
S11313608381DF01E92FF82F3097D1F6211531055C
S1131370F9F0C901841B950B8430910580F48A81AE
S11313809B816115710521F0FB019383828304C065
S11313909093610180936001FE01329642C0FE0188
S11313A0E80FF91F4193519302979983888339C0B9
S11313B080915E0190915F01009741F48091A400B7
S11313C09091A50090935F0180935E012091A2000B
S11313D03091A3002115310541F42DB73EB780911A
S11313E0A6009091A700281B390BE0915E01F091B3
S11313F05F01E217F30798F42E1B3F0B2417350700
S113140070F0CA0102962817390748F08E0F9F1F03
S113141090935F0180935E014193519302C0E0E099
S1131420F0E0CF01DF91CF9108950F931F93CF93F5
S1131430DF939C01009709F48CC0DC01129713968A
S11314401C921E9212976091600170916101611566
S1131450710589F48D919C911197820F931F2091AE
S11314605E0130915F012817390769F5B0935F0178
S1131470A0935E016EC0FB0140E050E001C0FC019E
S1131480EA17FB0730F482819381AF010097B9F723
S11314901FC0E9012297FB83EA8308811981C901EE
S11314A0800F911F8E179F0759F480819181800FBF
S11314B0911F029699838883828193819B838A8377
S11314C04115510529F4B0936101A093600141C015
S11314D0FA01B383A283C191D191EC0FFD1FAE1722
S11314E0BF0781F4F901929182918C0F9D1F02969E
S11314F0DA0111969C938E938281938113969C9327
S11315008E931297E0E0F0E002C0FB01BC01DB0126
S113151012968D919C9113970097B9F7CB0102967F
S11315202D913C911197820F931F20915E01309170
S11315305F012817390769F4309729F41092610183
S11315401092600102C01382128270935F01609353
S11315505E01DF91CF911F910F910895FB019F01CF
S1131560E8944230BCF04532ACF44A3029F497FB9D
S11315701EF4909581959F4F642F7727ACDE805D94
S11315808A330CF0895D8193CB010097A9F716F497
S11315905DE251931082C90100C0DC01FC01672F98
S11315A071917723E1F7329704C07C916D93708336
S11115B06291AE17BF07C8F30895F894FFCFF9
S11315BE2020447573742053656E736F722020005F
S11315CE2053797374656D205265616479200030FF
S11315DE3030300050756C73655F636F756E743A9E
S11315EE0020566F6C743A002C49443A2030303047
S10B15FE31000000620120002D
S9030000FC
